{
  "contractName": "CryptoDoggies",
  "abi": [
    {
      "constant": true,
      "inputs": [
        {
          "name": "interfaceId",
          "type": "bytes4"
        }
      ],
      "name": "supportsInterface",
      "outputs": [
        {
          "name": "",
          "type": "bool"
        }
      ],
      "payable": false,
      "stateMutability": "view",
      "type": "function"
    },
    {
      "constant": true,
      "inputs": [
        {
          "name": "tokenId",
          "type": "uint256"
        }
      ],
      "name": "getApproved",
      "outputs": [
        {
          "name": "",
          "type": "address"
        }
      ],
      "payable": false,
      "stateMutability": "view",
      "type": "function"
    },
    {
      "constant": false,
      "inputs": [
        {
          "name": "from",
          "type": "address"
        },
        {
          "name": "to",
          "type": "address"
        },
        {
          "name": "tokenId",
          "type": "uint256"
        }
      ],
      "name": "safeTransferFrom",
      "outputs": [],
      "payable": false,
      "stateMutability": "nonpayable",
      "type": "function"
    },
    {
      "constant": true,
      "inputs": [],
      "name": "paused",
      "outputs": [
        {
          "name": "",
          "type": "bool"
        }
      ],
      "payable": false,
      "stateMutability": "view",
      "type": "function"
    },
    {
      "constant": false,
      "inputs": [],
      "name": "renounceOwnership",
      "outputs": [],
      "payable": false,
      "stateMutability": "nonpayable",
      "type": "function"
    },
    {
      "constant": true,
      "inputs": [],
      "name": "owner",
      "outputs": [
        {
          "name": "",
          "type": "address"
        }
      ],
      "payable": false,
      "stateMutability": "view",
      "type": "function"
    },
    {
      "constant": true,
      "inputs": [],
      "name": "isOwner",
      "outputs": [
        {
          "name": "",
          "type": "bool"
        }
      ],
      "payable": false,
      "stateMutability": "view",
      "type": "function"
    },
    {
      "constant": false,
      "inputs": [
        {
          "name": "to",
          "type": "address"
        },
        {
          "name": "approved",
          "type": "bool"
        }
      ],
      "name": "setApprovalForAll",
      "outputs": [],
      "payable": false,
      "stateMutability": "nonpayable",
      "type": "function"
    },
    {
      "constant": false,
      "inputs": [
        {
          "name": "from",
          "type": "address"
        },
        {
          "name": "to",
          "type": "address"
        },
        {
          "name": "tokenId",
          "type": "uint256"
        },
        {
          "name": "_data",
          "type": "bytes"
        }
      ],
      "name": "safeTransferFrom",
      "outputs": [],
      "payable": false,
      "stateMutability": "nonpayable",
      "type": "function"
    },
    {
      "constant": true,
      "inputs": [
        {
          "name": "owner",
          "type": "address"
        },
        {
          "name": "operator",
          "type": "address"
        }
      ],
      "name": "isApprovedForAll",
      "outputs": [
        {
          "name": "",
          "type": "bool"
        }
      ],
      "payable": false,
      "stateMutability": "view",
      "type": "function"
    },
    {
      "constant": false,
      "inputs": [
        {
          "name": "newOwner",
          "type": "address"
        }
      ],
      "name": "transferOwnership",
      "outputs": [],
      "payable": false,
      "stateMutability": "nonpayable",
      "type": "function"
    },
    {
      "anonymous": false,
      "inputs": [
        {
          "indexed": false,
          "name": "tokenId",
          "type": "uint256"
        },
        {
          "indexed": false,
          "name": "name",
          "type": "string"
        },
        {
          "indexed": false,
          "name": "dna",
          "type": "bytes5"
        },
        {
          "indexed": false,
          "name": "price",
          "type": "uint256"
        },
        {
          "indexed": false,
          "name": "owner",
          "type": "address"
        }
      ],
      "name": "TokenCreated",
      "type": "event"
    },
    {
      "anonymous": false,
      "inputs": [
        {
          "indexed": true,
          "name": "tokenId",
          "type": "uint256"
        },
        {
          "indexed": false,
          "name": "name",
          "type": "string"
        },
        {
          "indexed": false,
          "name": "dna",
          "type": "bytes5"
        },
        {
          "indexed": false,
          "name": "sellingPrice",
          "type": "uint256"
        },
        {
          "indexed": false,
          "name": "newPrice",
          "type": "uint256"
        },
        {
          "indexed": true,
          "name": "oldOwner",
          "type": "address"
        },
        {
          "indexed": true,
          "name": "newOwner",
          "type": "address"
        }
      ],
      "name": "TokenSold",
      "type": "event"
    },
    {
      "anonymous": false,
      "inputs": [
        {
          "indexed": true,
          "name": "previousOwner",
          "type": "address"
        },
        {
          "indexed": true,
          "name": "newOwner",
          "type": "address"
        }
      ],
      "name": "OwnershipTransferred",
      "type": "event"
    },
    {
      "anonymous": false,
      "inputs": [
        {
          "indexed": true,
          "name": "from",
          "type": "address"
        },
        {
          "indexed": true,
          "name": "to",
          "type": "address"
        },
        {
          "indexed": true,
          "name": "tokenId",
          "type": "uint256"
        }
      ],
      "name": "Transfer",
      "type": "event"
    },
    {
      "anonymous": false,
      "inputs": [
        {
          "indexed": true,
          "name": "owner",
          "type": "address"
        },
        {
          "indexed": true,
          "name": "approved",
          "type": "address"
        },
        {
          "indexed": true,
          "name": "tokenId",
          "type": "uint256"
        }
      ],
      "name": "Approval",
      "type": "event"
    },
    {
      "anonymous": false,
      "inputs": [
        {
          "indexed": true,
          "name": "owner",
          "type": "address"
        },
        {
          "indexed": true,
          "name": "operator",
          "type": "address"
        },
        {
          "indexed": false,
          "name": "approved",
          "type": "bool"
        }
      ],
      "name": "ApprovalForAll",
      "type": "event"
    },
    {
      "constant": false,
      "inputs": [],
      "name": "AccessControl",
      "outputs": [],
      "payable": false,
      "stateMutability": "nonpayable",
      "type": "function"
    },
    {
      "constant": false,
      "inputs": [
        {
          "name": "_newCEO",
          "type": "address"
        }
      ],
      "name": "setCEO",
      "outputs": [],
      "payable": false,
      "stateMutability": "nonpayable",
      "type": "function"
    },
    {
      "constant": false,
      "inputs": [
        {
          "name": "_newCOO",
          "type": "address"
        }
      ],
      "name": "setCOO",
      "outputs": [],
      "payable": false,
      "stateMutability": "nonpayable",
      "type": "function"
    },
    {
      "constant": false,
      "inputs": [
        {
          "name": "_name",
          "type": "string"
        },
        {
          "name": "_owner",
          "type": "address"
        },
        {
          "name": "_price",
          "type": "uint256"
        }
      ],
      "name": "createToken",
      "outputs": [],
      "payable": false,
      "stateMutability": "nonpayable",
      "type": "function"
    },
    {
      "constant": false,
      "inputs": [
        {
          "name": "_name",
          "type": "string"
        }
      ],
      "name": "createToken",
      "outputs": [],
      "payable": false,
      "stateMutability": "nonpayable",
      "type": "function"
    },
    {
      "constant": false,
      "inputs": [
        {
          "name": "_tokenId",
          "type": "uint256"
        }
      ],
      "name": "getToken",
      "outputs": [
        {
          "name": "_tokenName",
          "type": "string"
        },
        {
          "name": "_dna",
          "type": "bytes5"
        },
        {
          "name": "_price",
          "type": "uint256"
        },
        {
          "name": "_nextPrice",
          "type": "uint256"
        },
        {
          "name": "_owner",
          "type": "address"
        }
      ],
      "payable": false,
      "stateMutability": "nonpayable",
      "type": "function"
    },
    {
      "constant": false,
      "inputs": [
        {
          "name": "_owner",
          "type": "address"
        }
      ],
      "name": "getTokensOf",
      "outputs": [
        {
          "name": "",
          "type": "uint256[]"
        }
      ],
      "payable": false,
      "stateMutability": "nonpayable",
      "type": "function"
    },
    {
      "constant": false,
      "inputs": [
        {
          "name": "_amount",
          "type": "uint256"
        },
        {
          "name": "_to",
          "type": "address"
        }
      ],
      "name": "withdrawBalance",
      "outputs": [],
      "payable": false,
      "stateMutability": "nonpayable",
      "type": "function"
    },
    {
      "constant": false,
      "inputs": [
        {
          "name": "_tokenId",
          "type": "uint256"
        }
      ],
      "name": "purchase",
      "outputs": [],
      "payable": true,
      "stateMutability": "payable",
      "type": "function"
    },
    {
      "constant": false,
      "inputs": [
        {
          "name": "_tokenId",
          "type": "uint256"
        }
      ],
      "name": "priceOf",
      "outputs": [
        {
          "name": "",
          "type": "uint256"
        }
      ],
      "payable": false,
      "stateMutability": "nonpayable",
      "type": "function"
    },
    {
      "constant": false,
      "inputs": [
        {
          "name": "_tokenId",
          "type": "uint256"
        }
      ],
      "name": "nextPriceOf",
      "outputs": [
        {
          "name": "",
          "type": "uint256"
        }
      ],
      "payable": false,
      "stateMutability": "nonpayable",
      "type": "function"
    },
    {
      "constant": false,
      "inputs": [],
      "name": "enableERC721",
      "outputs": [],
      "payable": false,
      "stateMutability": "nonpayable",
      "type": "function"
    },
    {
      "constant": false,
      "inputs": [],
      "name": "totalSupply",
      "outputs": [
        {
          "name": "_totalSupply",
          "type": "uint256"
        }
      ],
      "payable": false,
      "stateMutability": "nonpayable",
      "type": "function"
    },
    {
      "constant": true,
      "inputs": [
        {
          "name": "_owner",
          "type": "address"
        }
      ],
      "name": "balanceOf",
      "outputs": [
        {
          "name": "_balance",
          "type": "uint256"
        }
      ],
      "payable": false,
      "stateMutability": "view",
      "type": "function"
    },
    {
      "constant": true,
      "inputs": [
        {
          "name": "_tokenId",
          "type": "uint256"
        }
      ],
      "name": "ownerOf",
      "outputs": [
        {
          "name": "_owner",
          "type": "address"
        }
      ],
      "payable": false,
      "stateMutability": "view",
      "type": "function"
    },
    {
      "constant": false,
      "inputs": [
        {
          "name": "_to",
          "type": "address"
        },
        {
          "name": "_tokenId",
          "type": "uint256"
        }
      ],
      "name": "approve",
      "outputs": [],
      "payable": false,
      "stateMutability": "nonpayable",
      "type": "function"
    },
    {
      "constant": false,
      "inputs": [
        {
          "name": "_from",
          "type": "address"
        },
        {
          "name": "_to",
          "type": "address"
        },
        {
          "name": "_tokenId",
          "type": "uint256"
        }
      ],
      "name": "transferFrom",
      "outputs": [],
      "payable": false,
      "stateMutability": "nonpayable",
      "type": "function"
    },
    {
      "constant": false,
      "inputs": [
        {
          "name": "_from",
          "type": "address"
        },
        {
          "name": "_to",
          "type": "address"
        },
        {
          "name": "_tokenId",
          "type": "uint256"
        }
      ],
      "name": "transfer",
      "outputs": [],
      "payable": false,
      "stateMutability": "nonpayable",
      "type": "function"
    },
    {
      "constant": true,
      "inputs": [],
      "name": "implementsERC721",
      "outputs": [
        {
          "name": "",
          "type": "bool"
        }
      ],
      "payable": false,
      "stateMutability": "view",
      "type": "function"
    },
    {
      "constant": false,
      "inputs": [
        {
          "name": "_tokenId",
          "type": "uint256"
        }
      ],
      "name": "takeOwnership",
      "outputs": [],
      "payable": false,
      "stateMutability": "nonpayable",
      "type": "function"
    },
    {
      "constant": true,
      "inputs": [],
      "name": "name",
      "outputs": [
        {
          "name": "_name",
          "type": "string"
        }
      ],
      "payable": false,
      "stateMutability": "view",
      "type": "function"
    },
    {
      "constant": true,
      "inputs": [],
      "name": "symbol",
      "outputs": [
        {
          "name": "_symbol",
          "type": "string"
        }
      ],
      "payable": false,
      "stateMutability": "view",
      "type": "function"
    }
  ],
  "bytecode": "0x60806040526000600760146101000a81548160ff021916908315150217905550662386f26fc10000600d556000600e60006101000a81548160ff0219169083151502179055506702c68af0bb140000600f556706f05b59d3b20000601055671bc16d674ec80000601155674563918244f40000601255620000b26301ffc9a77c010000000000000000000000000000000000000000000000000000000002620001b3640100000000026401000000009004565b620000ef6380ac58cd7c010000000000000000000000000000000000000000000000000000000002620001b3640100000000026401000000009004565b33600560006101000a81548173ffffffffffffffffffffffffffffffffffffffff021916908373ffffffffffffffffffffffffffffffffffffffff160217905550600560009054906101000a900473ffffffffffffffffffffffffffffffffffffffff1673ffffffffffffffffffffffffffffffffffffffff16600073ffffffffffffffffffffffffffffffffffffffff167f8be0079c531659141344cd1fd0a4f28419497f9722a3daafe3b4186f6b6457e060405160405180910390a3620002da565b63ffffffff7c010000000000000000000000000000000000000000000000000000000002817bffffffffffffffffffffffffffffffffffffffffffffffffffffffff1916141515156200026e576040517f08c379a000000000000000000000000000000000000000000000000000000000815260040180806020018281038252601c8152602001807f4552433136353a20696e76616c696420696e746572666163652069640000000081525060200191505060405180910390fd5b6001600080837bffffffffffffffffffffffffffffffffffffffffffffffffffffffff19167bffffffffffffffffffffffffffffffffffffffffffffffffffffffff1916815260200190815260200160002060006101000a81548160ff02191690831515021790555050565b6134e080620002ea6000396000f3fe6080604052600436106101a1576000357c0100000000000000000000000000000000000000000000000000000000900463ffffffff16806301ffc9a7146101a657806306fdde0314610218578063081812fc146102a8578063095ea7b3146103235780630986b2101461037e5780631051db341461042457806318160ddd146104535780631f7c4bf31461047e57806323b872dd1461049557806327d7874c146105105780632ba73c151461056157806342842e0e146105b257806345576f941461062d5780635ba9e48e146106f55780635c975abb146107445780636352211e1461077357806370a08231146107ee578063715018a61461085357806371dc761e1461086a57806373b4df051461088157806379e81f39146109735780638da5cb5b146109ce5780638f32d59b14610a2557806395d89b4114610a54578063a22cb46514610ae4578063b2e6ceeb14610b41578063b88d4fde14610b7c578063b9186d7d14610c8e578063beabacc814610cdd578063e4b50cb814610d58578063e985e9c514610e90578063efef39a114610f19578063f2fde38b14610f47575b600080fd5b3480156101b257600080fd5b506101fe600480360360208110156101c957600080fd5b8101908080357bffffffffffffffffffffffffffffffffffffffffffffffffffffffff19169060200190929190505050610f98565b604051808215151515815260200191505060405180910390f35b34801561022457600080fd5b5061022d610fff565b6040518080602001828103825283818151815260200191508051906020019080838360005b8381101561026d578082015181840152602081019050610252565b50505050905090810190601f16801561029a5780820380516001836020036101000a031916815260200191505b509250505060405180910390f35b3480156102b457600080fd5b506102e1600480360360208110156102cb57600080fd5b810190808035906020019092919050505061103f565b604051808273ffffffffffffffffffffffffffffffffffffffff1673ffffffffffffffffffffffffffffffffffffffff16815260200191505060405180910390f35b34801561032f57600080fd5b5061037c6004803603604081101561034657600080fd5b81019080803573ffffffffffffffffffffffffffffffffffffffff1690602001909291908035906020019092919050505061111f565b005b34801561038a57600080fd5b506103cd600480360360208110156103a157600080fd5b81019080803573ffffffffffffffffffffffffffffffffffffffff169060200190929190505050611285565b6040518080602001828103825283818151815260200191508051906020019060200280838360005b838110156104105780820151818401526020810190506103f5565b505050509050019250505060405180910390f35b34801561043057600080fd5b506104396113d1565b604051808215151515815260200191505060405180910390f35b34801561045f57600080fd5b50610468611404565b6040518082815260200191505060405180910390f35b34801561048a57600080fd5b50610493611411565b005b3480156104a157600080fd5b5061050e600480360360608110156104b857600080fd5b81019080803573ffffffffffffffffffffffffffffffffffffffff169060200190929190803573ffffffffffffffffffffffffffffffffffffffff16906020019092919080359060200190929190505050611495565b005b34801561051c57600080fd5b5061055f6004803603602081101561053357600080fd5b81019080803573ffffffffffffffffffffffffffffffffffffffff169060200190929190505050611596565b005b34801561056d57600080fd5b506105b06004803603602081101561058457600080fd5b81019080803573ffffffffffffffffffffffffffffffffffffffff169060200190929190505050611672565b005b3480156105be57600080fd5b5061062b600480360360608110156105d557600080fd5b81019080803573ffffffffffffffffffffffffffffffffffffffff169060200190929190803573ffffffffffffffffffffffffffffffffffffffff1690602001909291908035906020019092919050505061174e565b005b34801561063957600080fd5b506106f36004803603602081101561065057600080fd5b810190808035906020019064010000000081111561066d57600080fd5b82018360208201111561067f57600080fd5b803590602001918460018302840111640100000000831117156106a157600080fd5b91908080601f016020809104026020016040519081016040528093929190818152602001838380828437600081840152601f19601f82011690508083019250505050505050919291929050505061176f565b005b34801561070157600080fd5b5061072e6004803603602081101561071857600080fd5b810190808035906020019092919050505061178d565b6040518082815260200191505060405180910390f35b34801561075057600080fd5b506107596118af565b604051808215151515815260200191505060405180910390f35b34801561077f57600080fd5b506107ac6004803603602081101561079657600080fd5b81019080803590602001909291905050506118c2565b604051808273ffffffffffffffffffffffffffffffffffffffff1673ffffffffffffffffffffffffffffffffffffffff16815260200191505060405180910390f35b3480156107fa57600080fd5b5061083d6004803603602081101561081157600080fd5b81019080803573ffffffffffffffffffffffffffffffffffffffff169060200190929190505050611902565b6040518082815260200191505060405180910390f35b34801561085f57600080fd5b5061086861194b565b005b34801561087657600080fd5b5061087f611a88565b005b34801561088d57600080fd5b50610971600480360360608110156108a457600080fd5b81019080803590602001906401000000008111156108c157600080fd5b8201836020820111156108d357600080fd5b803590602001918460018302840111640100000000831117156108f557600080fd5b91908080601f016020809104026020016040519081016040528093929190818152602001838380828437600081840152601f19601f820116905080830192505050505050509192919290803573ffffffffffffffffffffffffffffffffffffffff16906020019092919080359060200190929190505050611b01565b005b34801561097f57600080fd5b506109cc6004803603604081101561099657600080fd5b8101908080359060200190929190803573ffffffffffffffffffffffffffffffffffffffff169060200190929190505050611c3e565b005b3480156109da57600080fd5b506109e3611dd3565b604051808273ffffffffffffffffffffffffffffffffffffffff1673ffffffffffffffffffffffffffffffffffffffff16815260200191505060405180910390f35b348015610a3157600080fd5b50610a3a611dfd565b604051808215151515815260200191505060405180910390f35b348015610a6057600080fd5b50610a69611e55565b6040518080602001828103825283818151815260200191508051906020019080838360005b83811015610aa9578082015181840152602081019050610a8e565b50505050905090810190601f168015610ad65780820380516001836020036101000a031916815260200191505b509250505060405180910390f35b348015610af057600080fd5b50610b3f60048036036040811015610b0757600080fd5b81019080803573ffffffffffffffffffffffffffffffffffffffff169060200190929190803515159060200190929190505050611e95565b005b348015610b4d57600080fd5b50610b7a60048036036020811015610b6457600080fd5b810190808035906020019092919050505061203a565b005b348015610b8857600080fd5b50610c8c60048036036080811015610b9f57600080fd5b81019080803573ffffffffffffffffffffffffffffffffffffffff169060200190929190803573ffffffffffffffffffffffffffffffffffffffff1690602001909291908035906020019092919080359060200190640100000000811115610c0657600080fd5b820183602082011115610c1857600080fd5b80359060200191846001830284011164010000000083111715610c3a57600080fd5b91908080601f016020809104026020016040519081016040528093929190818152602001838380828437600081840152601f19601f820116905080830192505050505050509192919290505050612130565b005b348015610c9a57600080fd5b50610cc760048036036020811015610cb157600080fd5b81019080803590602001909291905050506121e7565b6040518082815260200191505060405180910390f35b348015610ce957600080fd5b50610d5660048036036060811015610d0057600080fd5b81019080803573ffffffffffffffffffffffffffffffffffffffff169060200190929190803573ffffffffffffffffffffffffffffffffffffffff16906020019092919080359060200190929190505050612204565b005b348015610d6457600080fd5b50610d9160048036036020811015610d7b57600080fd5b8101908080359060200190929190505050612265565b6040518080602001867affffffffffffffffffffffffffffffffffffffffffffffffffffff19167affffffffffffffffffffffffffffffffffffffffffffffffffffff191681526020018581526020018481526020018373ffffffffffffffffffffffffffffffffffffffff1673ffffffffffffffffffffffffffffffffffffffff168152602001828103825287818151815260200191508051906020019080838360005b83811015610e51578082015181840152602081019050610e36565b50505050905090810190601f168015610e7e5780820380516001836020036101000a031916815260200191505b50965050505050505060405180910390f35b348015610e9c57600080fd5b50610eff60048036036040811015610eb357600080fd5b81019080803573ffffffffffffffffffffffffffffffffffffffff169060200190929190803573ffffffffffffffffffffffffffffffffffffffff1690602001909291905050506123d3565b604051808215151515815260200191505060405180910390f35b610f4560048036036020811015610f2f57600080fd5b8101908080359060200190929190505050612467565b005b348015610f5357600080fd5b50610f9660048036036020811015610f6a57600080fd5b81019080803573ffffffffffffffffffffffffffffffffffffffff169060200190929190505050612866565b005b6000806000837bffffffffffffffffffffffffffffffffffffffffffffffffffffffff19167bffffffffffffffffffffffffffffffffffffffffffffffffffffffff1916815260200190815260200160002060009054906101000a900460ff169050919050565b60606040805190810160405280600d81526020017f43727970746f446f676769657300000000000000000000000000000000000000815250905080905090565b600061104a826128ee565b15156110e4576040517f08c379a000000000000000000000000000000000000000000000000000000000815260040180806020018281038252602c8152602001807f4552433732313a20617070726f76656420717565727920666f72206e6f6e657881526020017f697374656e7420746f6b656e000000000000000000000000000000000000000081525060400191505060405180910390fd5b6002600083815260200190815260200160002060009054906101000a900473ffffffffffffffffffffffffffffffffffffffff169050919050565b600760149054906101000a900460ff1615151561113b57600080fd5b600e60009054906101000a900460ff1615156111bf576040517f08c379a00000000000000000000000000000000000000000000000000000000081526004018080602001828103825260128152602001807f455243373231206e6f7420656e61626c6564000000000000000000000000000081525060200191505060405180910390fd5b6111c93382612960565b15156111d457600080fd5b81600b600083815260200190815260200160002060006101000a81548173ffffffffffffffffffffffffffffffffffffffff021916908373ffffffffffffffffffffffffffffffffffffffff160217905550808273ffffffffffffffffffffffffffffffffffffffff163373ffffffffffffffffffffffffffffffffffffffff167f8c5be1e5ebec7d5bd14f71427d1e84f3dd0314c0f7b2291e5b200ac8c7c3b92560405160405180910390a45050565b6060600061129283611902565b905060008114156112d65760006040519080825280602002602001820160405280156112cd5781602001602082028038833980820191505090505b509150506113cc565b6060816040519080825280602002602001820160405280156113075781602001602082028038833980820191505090505b5090506000611314611404565b9050600080905060008090505b828110156113c3578673ffffffffffffffffffffffffffffffffffffffff166008600083815260200190815260200160002060009054906101000a900473ffffffffffffffffffffffffffffffffffffffff1673ffffffffffffffffffffffffffffffffffffffff1614156113b65780848381518110151561139f57fe5b906020019060200201818152505081806001019250505b8080600101915050611321565b50829450505050505b919050565b6000600760149054906101000a900460ff161515156113ef57600080fd5b600e60009054906101000a900460ff16905090565b6000600c80549050905090565b33600660006101000a81548173ffffffffffffffffffffffffffffffffffffffff021916908373ffffffffffffffffffffffffffffffffffffffff16021790555033600760006101000a81548173ffffffffffffffffffffffffffffffffffffffff021916908373ffffffffffffffffffffffffffffffffffffffff160217905550565b600760149054906101000a900460ff161515156114b157600080fd5b600e60009054906101000a900460ff161515611535576040517f08c379a00000000000000000000000000000000000000000000000000000000081526004018080602001828103825260128152602001807f455243373231206e6f7420656e61626c6564000000000000000000000000000081525060200191505060405180910390fd5b600073ffffffffffffffffffffffffffffffffffffffff168273ffffffffffffffffffffffffffffffffffffffff161415151561157157600080fd5b61157b8382612960565b151561158657600080fd5b6115918383836129cc565b505050565b600660009054906101000a900473ffffffffffffffffffffffffffffffffffffffff1673ffffffffffffffffffffffffffffffffffffffff163373ffffffffffffffffffffffffffffffffffffffff161415156115f257600080fd5b600073ffffffffffffffffffffffffffffffffffffffff168173ffffffffffffffffffffffffffffffffffffffff161415151561162e57600080fd5b80600660006101000a81548173ffffffffffffffffffffffffffffffffffffffff021916908373ffffffffffffffffffffffffffffffffffffffff16021790555050565b600660009054906101000a900473ffffffffffffffffffffffffffffffffffffffff1673ffffffffffffffffffffffffffffffffffffffff163373ffffffffffffffffffffffffffffffffffffffff161415156116ce57600080fd5b600073ffffffffffffffffffffffffffffffffffffffff168173ffffffffffffffffffffffffffffffffffffffff161415151561170a57600080fd5b80600760006101000a81548173ffffffffffffffffffffffffffffffffffffffff021916908373ffffffffffffffffffffffffffffffffffffffff16021790555050565b61176a8383836020604051908101604052806000815250612130565b505050565b6000611779612b6f565b9050611789828230600d54612b8a565b5050565b600080611799836121e7565b9050600f548110156117d4576117cc605f6117be60c884612dac90919063ffffffff16565b612e7990919063ffffffff16565b9150506118aa565b60105481101561180d5761180560606117f7608784612dac90919063ffffffff16565b612e7990919063ffffffff16565b9150506118aa565b6011548110156118465761183e6061611830607d84612dac90919063ffffffff16565b612e7990919063ffffffff16565b9150506118aa565b60125481101561187f576118776061611869607584612dac90919063ffffffff16565b612e7990919063ffffffff16565b9150506118aa565b6118a66062611898607384612dac90919063ffffffff16565b612e7990919063ffffffff16565b9150505b919050565b600760149054906101000a900460ff1681565b60006008600083815260200190815260200160002060009054906101000a900473ffffffffffffffffffffffffffffffffffffffff169050809050919050565b6000600a60008373ffffffffffffffffffffffffffffffffffffffff1673ffffffffffffffffffffffffffffffffffffffff168152602001908152602001600020549050919050565b611953611dfd565b15156119c7576040517f08c379a00000000000000000000000000000000000000000000000000000000081526004018080602001828103825260208152602001807f4f776e61626c653a2063616c6c6572206973206e6f7420746865206f776e657281525060200191505060405180910390fd5b600073ffffffffffffffffffffffffffffffffffffffff16600560009054906101000a900473ffffffffffffffffffffffffffffffffffffffff1673ffffffffffffffffffffffffffffffffffffffff167f8be0079c531659141344cd1fd0a4f28419497f9722a3daafe3b4186f6b6457e060405160405180910390a36000600560006101000a81548173ffffffffffffffffffffffffffffffffffffffff021916908373ffffffffffffffffffffffffffffffffffffffff160217905550565b600660009054906101000a900473ffffffffffffffffffffffffffffffffffffffff1673ffffffffffffffffffffffffffffffffffffffff163373ffffffffffffffffffffffffffffffffffffffff16141515611ae457600080fd5b6001600e60006101000a81548160ff021916908315150217905550565b600073ffffffffffffffffffffffffffffffffffffffff168273ffffffffffffffffffffffffffffffffffffffff1614151515611ba6576040517f08c379a00000000000000000000000000000000000000000000000000000000081526004018080602001828103825260178152602001807f656d70747920616464726573732073706563696669656400000000000000000081525060200191505060405180910390fd5b600d548110151515611c20576040517f08c379a00000000000000000000000000000000000000000000000000000000081526004018080602001828103825260108152602001807f507269636520697320696e76616c69640000000000000000000000000000000081525060200191505060405180910390fd5b6000611c2a612b6f565b9050611c3884828585612b8a565b50505050565b600660009054906101000a900473ffffffffffffffffffffffffffffffffffffffff1673ffffffffffffffffffffffffffffffffffffffff163373ffffffffffffffffffffffffffffffffffffffff16141515611c9a57600080fd5b3073ffffffffffffffffffffffffffffffffffffffff16318211151515611cc057600080fd5b6000821415611ce4573073ffffffffffffffffffffffffffffffffffffffff163191505b600073ffffffffffffffffffffffffffffffffffffffff168173ffffffffffffffffffffffffffffffffffffffff161415611d8757600660009054906101000a900473ffffffffffffffffffffffffffffffffffffffff1673ffffffffffffffffffffffffffffffffffffffff166108fc839081150290604051600060405180830381858888f19350505050158015611d81573d6000803e3d6000fd5b50611dcf565b8073ffffffffffffffffffffffffffffffffffffffff166108fc839081150290604051600060405180830381858888f19350505050158015611dcd573d6000803e3d6000fd5b505b5050565b6000600560009054906101000a900473ffffffffffffffffffffffffffffffffffffffff16905090565b6000600560009054906101000a900473ffffffffffffffffffffffffffffffffffffffff1673ffffffffffffffffffffffffffffffffffffffff163373ffffffffffffffffffffffffffffffffffffffff1614905090565b60606040805190810160405280600381526020017f4344540000000000000000000000000000000000000000000000000000000000815250905080905090565b3373ffffffffffffffffffffffffffffffffffffffff168273ffffffffffffffffffffffffffffffffffffffff1614151515611f39576040517f08c379a00000000000000000000000000000000000000000000000000000000081526004018080602001828103825260198152602001807f4552433732313a20617070726f766520746f2063616c6c65720000000000000081525060200191505060405180910390fd5b80600460003373ffffffffffffffffffffffffffffffffffffffff1673ffffffffffffffffffffffffffffffffffffffff16815260200190815260200160002060008473ffffffffffffffffffffffffffffffffffffffff1673ffffffffffffffffffffffffffffffffffffffff16815260200190815260200160002060006101000a81548160ff0219169083151502179055508173ffffffffffffffffffffffffffffffffffffffff163373ffffffffffffffffffffffffffffffffffffffff167f17307eab39ab6107e8899845ad3d59bd9653f200f220920489ca2b5937696c3183604051808215151515815260200191505060405180910390a35050565b600760149054906101000a900460ff1615151561205657600080fd5b600e60009054906101000a900460ff1615156120da576040517f08c379a00000000000000000000000000000000000000000000000000000000081526004018080602001828103825260128152602001807f455243373231206e6f7420656e61626c6564000000000000000000000000000081525060200191505060405180910390fd5b6120e43382612f0c565b15156120ef57600080fd5b61212d6008600083815260200190815260200160002060009054906101000a900473ffffffffffffffffffffffffffffffffffffffff1633836129cc565b50565b61213b848484611495565b61214784848484612f78565b15156121e1576040517f08c379a00000000000000000000000000000000000000000000000000000000081526004018080602001828103825260328152602001807f4552433732313a207472616e7366657220746f206e6f6e20455243373231526581526020017f63656976657220696d706c656d656e746572000000000000000000000000000081525060400191505060405180910390fd5b50505050565b600060096000838152602001908152602001600020549050919050565b600073ffffffffffffffffffffffffffffffffffffffff168273ffffffffffffffffffffffffffffffffffffffff161415151561224057600080fd5b61224a3382612960565b151561225557600080fd5b6122603383836129cc565b505050565b6060600080600080600c8681548110151561227c57fe5b90600052602060002090600202016000018054600181600116156101000203166002900480601f0160208091040260200160405190810160405280929190818152602001828054600181600116156101000203166002900480156123215780601f106122f657610100808354040283529160200191612321565b820191906000526020600020905b81548152906001019060200180831161230457829003601f168201915b50505050509450600c8681548110151561233757fe5b906000526020600020906002020160010160009054906101000a90047b01000000000000000000000000000000000000000000000000000000029350600960008781526020019081526020016000205492506123928661178d565b91506008600087815260200190815260200160002060009054906101000a900473ffffffffffffffffffffffffffffffffffffffff16905091939590929450565b6000600460008473ffffffffffffffffffffffffffffffffffffffff1673ffffffffffffffffffffffffffffffffffffffff16815260200190815260200160002060008373ffffffffffffffffffffffffffffffffffffffff1673ffffffffffffffffffffffffffffffffffffffff16815260200190815260200160002060009054906101000a900460ff16905092915050565b600760149054906101000a900460ff1615151561248357600080fd5b600061248e826118c2565b9050600033905060006124a0846121e7565b9050600073ffffffffffffffffffffffffffffffffffffffff168373ffffffffffffffffffffffffffffffffffffffff161415156124dd57600080fd5b600073ffffffffffffffffffffffffffffffffffffffff168273ffffffffffffffffffffffffffffffffffffffff1614151561251857600080fd5b8173ffffffffffffffffffffffffffffffffffffffff168373ffffffffffffffffffffffffffffffffffffffff161415151561255357600080fd5b61255c8261319b565b15151561256857600080fd5b60008111151561257757600080fd5b80341015151561258657600080fd5b6125918383866129cc565b8173ffffffffffffffffffffffffffffffffffffffff168373ffffffffffffffffffffffffffffffffffffffff16857f47c2495ae9a226645e2cfa7b81ab70c2d82f35b0c69a72358812cca2f0f0bcbc600c888154811015156125f057fe5b9060005260206000209060020201600001600c8981548110151561261057fe5b906000526020600020906002020160010160009054906101000a90047b0100000000000000000000000000000000000000000000000000000002866126548b6121e7565b6040518080602001857affffffffffffffffffffffffffffffffffffffffffffffffffffff19167affffffffffffffffffffffffffffffffffffffffffffffffffffff1916815260200184815260200183815260200182810382528681815460018160011615610100020316600290048152602001915080546001816001161561010002031660029004801561272b5780601f106127005761010080835404028352916020019161272b565b820191906000526020600020905b81548152906001019060200180831161270e57829003601f168201915b50509550505050505060405180910390a4600061275182346131ae90919063ffffffff16565b9050600061277c606461276e600634612dac90919063ffffffff16565b612e7990919063ffffffff16565b90503073ffffffffffffffffffffffffffffffffffffffff168573ffffffffffffffffffffffffffffffffffffffff1614151561280d578473ffffffffffffffffffffffffffffffffffffffff166108fc6127e083866131ae90919063ffffffff16565b9081150290604051600060405180830381858888f1935050505015801561280b573d6000803e3d6000fd5b505b600082111561285e578373ffffffffffffffffffffffffffffffffffffffff166108fc839081150290604051600060405180830381858888f1935050505015801561285c573d6000803e3d6000fd5b505b505050505050565b61286e611dfd565b15156128e2576040517f08c379a00000000000000000000000000000000000000000000000000000000081526004018080602001828103825260208152602001807f4f776e61626c653a2063616c6c6572206973206e6f7420746865206f776e657281525060200191505060405180910390fd5b6128eb81613239565b50565b6000806001600084815260200190815260200160002060009054906101000a900473ffffffffffffffffffffffffffffffffffffffff169050600073ffffffffffffffffffffffffffffffffffffffff168173ffffffffffffffffffffffffffffffffffffffff161415915050919050565b60008273ffffffffffffffffffffffffffffffffffffffff166008600084815260200190815260200160002060009054906101000a900473ffffffffffffffffffffffffffffffffffffffff1673ffffffffffffffffffffffffffffffffffffffff1614905092915050565b600a60008373ffffffffffffffffffffffffffffffffffffffff1673ffffffffffffffffffffffffffffffffffffffff168152602001908152602001600020600081548092919060010191905055508173ffffffffffffffffffffffffffffffffffffffff166008600083815260200190815260200160002060009054906101000a90505050600073ffffffffffffffffffffffffffffffffffffffff168373ffffffffffffffffffffffffffffffffffffffff16141515612b0f57600a60008373ffffffffffffffffffffffffffffffffffffffff1673ffffffffffffffffffffffffffffffffffffffff1681526020019081526020016000206000815480929190600190039190505550600b600082815260200190815260200160002060006101000a81549073ffffffffffffffffffffffffffffffffffffffff02191690555b808273ffffffffffffffffffffffffffffffffffffffff168473ffffffffffffffffffffffffffffffffffffffff167fddf252ad1be2c89b69c2b068fc378daa952ba7f163c4a11628f55a4df523b3ef60405160405180910390a4505050565b60008060014303905060008140905060058101519250505090565b612b926133d7565b6040805190810160405280868152602001857affffffffffffffffffffffffffffffffffffffffffffffffffffff1916815250905060006001600c83908060018154018082558091505090600182039060005260206000209060020201600090919290919091506000820151816000019080519060200190612c1592919061340f565b5060208201518160010160006101000a81548164ffffffffff02191690837b010000000000000000000000000000000000000000000000000000009004021790555050500390508260096000838152602001908152602001600020819055507fe2541836f6f02475fc0b01a06c1e80d7e5098215c6015348851ceabef9d05e6881878786886040518086815260200180602001857affffffffffffffffffffffffffffffffffffffffffffffffffffff19167affffffffffffffffffffffffffffffffffffffffffffffffffffff191681526020018481526020018373ffffffffffffffffffffffffffffffffffffffff1673ffffffffffffffffffffffffffffffffffffffff168152602001828103825286818151815260200191508051906020019080838360005b83811015612d5a578082015181840152602081019050612d3f565b50505050905090810190601f168015612d875780820380516001836020036101000a031916815260200191505b50965050505050505060405180910390a1612da4600085836129cc565b505050505050565b600080831415612dbf5760009050612e73565b60008284029050828482811515612dd257fe5b04141515612e6e576040517f08c379a00000000000000000000000000000000000000000000000000000000081526004018080602001828103825260218152602001807f536166654d6174683a206d756c7469706c69636174696f6e206f766572666c6f81526020017f770000000000000000000000000000000000000000000000000000000000000081525060400191505060405180910390fd5b809150505b92915050565b60008082111515612ef2576040517f08c379a000000000000000000000000000000000000000000000000000000000815260040180806020018281038252601a8152602001807f536166654d6174683a206469766973696f6e206279207a65726f00000000000081525060200191505060405180910390fd5b60008284811515612eff57fe5b0490508091505092915050565b60008273ffffffffffffffffffffffffffffffffffffffff16600b600084815260200190815260200160002060009054906101000a900473ffffffffffffffffffffffffffffffffffffffff1673ffffffffffffffffffffffffffffffffffffffff1614905092915050565b6000612f998473ffffffffffffffffffffffffffffffffffffffff166133c4565b1515612fa85760019050613193565b60008473ffffffffffffffffffffffffffffffffffffffff1663150b7a02338887876040518563ffffffff167c0100000000000000000000000000000000000000000000000000000000028152600401808573ffffffffffffffffffffffffffffffffffffffff1673ffffffffffffffffffffffffffffffffffffffff1681526020018473ffffffffffffffffffffffffffffffffffffffff1673ffffffffffffffffffffffffffffffffffffffff16815260200183815260200180602001828103825283818151815260200191508051906020019080838360005b8381101561309f578082015181840152602081019050613084565b50505050905090810190601f1680156130cc5780820380516001836020036101000a031916815260200191505b5095505050505050602060405180830381600087803b1580156130ee57600080fd5b505af1158015613102573d6000803e3d6000fd5b505050506040513d602081101561311857600080fd5b8101908080519060200190929190505050905063150b7a027c0100000000000000000000000000000000000000000000000000000000027bffffffffffffffffffffffffffffffffffffffffffffffffffffffff1916817bffffffffffffffffffffffffffffffffffffffffffffffffffffffff1916149150505b949350505050565b600080823b905060008111915050919050565b6000828211151515613228576040517f08c379a000000000000000000000000000000000000000000000000000000000815260040180806020018281038252601e8152602001807f536166654d6174683a207375627472616374696f6e206f766572666c6f77000081525060200191505060405180910390fd5b600082840390508091505092915050565b600073ffffffffffffffffffffffffffffffffffffffff168173ffffffffffffffffffffffffffffffffffffffff1614151515613304576040517f08c379a00000000000000000000000000000000000000000000000000000000081526004018080602001828103825260268152602001807f4f776e61626c653a206e6577206f776e657220697320746865207a65726f206181526020017f646472657373000000000000000000000000000000000000000000000000000081525060400191505060405180910390fd5b8073ffffffffffffffffffffffffffffffffffffffff16600560009054906101000a900473ffffffffffffffffffffffffffffffffffffffff1673ffffffffffffffffffffffffffffffffffffffff167f8be0079c531659141344cd1fd0a4f28419497f9722a3daafe3b4186f6b6457e060405160405180910390a380600560006101000a81548173ffffffffffffffffffffffffffffffffffffffff021916908373ffffffffffffffffffffffffffffffffffffffff16021790555050565b600080823b905060008111915050919050565b60408051908101604052806060815260200160007affffffffffffffffffffffffffffffffffffffffffffffffffffff191681525090565b828054600181600116156101000203166002900490600052602060002090601f016020900481019282601f1061345057805160ff191683800117855561347e565b8280016001018555821561347e579182015b8281111561347d578251825591602001919060010190613462565b5b50905061348b919061348f565b5090565b6134b191905b808211156134ad576000816000905550600101613495565b5090565b9056fea165627a7a72305820b72ddcf53f8dfa31ca3238ad7f1e987ea8f36ec8e75f0810a80d22ea448b4b010029",
  "source": "pragma solidity >=0.4.24 < 0.6.0;\r\n\r\nimport '../node_modules/openzeppelin-solidity/contracts/token/ERC721/ERC721.sol';\r\nimport '../node_modules/openzeppelin-solidity/contracts/math/SafeMath.sol';\r\nimport '../node_modules/openzeppelin-solidity/contracts/ownership/Ownable.sol';\r\n\r\ncontract CryptoDoggies is ERC721, Ownable{\r\n    using SafeMath for uint;\r\n    \r\n    /// @dev The addresses of the accounts (or contracts) that can execute actions within each roles\r\n    address payable ceoAddress;\r\n    address payable cooAddress;\r\n\r\n    /// @dev Keeps track whether the contract is paused. When that is true, most actions are blocked\r\n    bool public paused = false;\r\n\r\n    /// @dev The AccessControl constructor sets the original C roles of the contract to the sender account\r\n    function AccessControl() public {\r\n        ceoAddress = msg.sender;\r\n        cooAddress = msg.sender;\r\n    }\r\n\r\n    /// @dev Access modifier for CEO-only functionality\r\n    modifier onlyCEO() {\r\n        require(msg.sender == ceoAddress);\r\n        _;\r\n    }\r\n\r\n    /// @dev Access modifier for COO-only functionality\r\n    modifier onlyCOO() {\r\n        require(msg.sender == cooAddress);\r\n        _;\r\n    }\r\n\r\n    /// @dev Access modifier for any CLevel functionality\r\n    modifier onlyCLevel() {\r\n        require(msg.sender == ceoAddress || msg.sender == cooAddress);\r\n        _;\r\n    }\r\n\r\n    /// @dev Assigns a new address to act as the CEO. Only available to the current CEO\r\n    /// @param _newCEO The address of the new CEO\r\n    function setCEO(address payable _newCEO) public onlyCEO {\r\n        require(_newCEO != address(0));\r\n         ceoAddress  = _newCEO;\r\n    }\r\n\r\n    /// @dev Assigns a new address to act as the COO. Only available to the current CEO\r\n    /// @param _newCOO The address of the new COO\r\n    function setCOO(address payable _newCOO) public onlyCEO {\r\n        require(_newCOO != address(0));\r\n        cooAddress = _newCOO;\r\n    }\r\n\r\n    /// @dev Modifier to allow actions only when the contract IS NOT paused\r\n    modifier whenNotPaused() {\r\n        require(!paused);\r\n        _;\r\n    }\r\n\r\n    /// @dev Modifier to allow actions only when the contract IS paused\r\n    modifier whenPaused {\r\n        require(paused);\r\n        _;\r\n    }\r\n    \r\n    event TokenCreated(uint tokenId, string name, bytes5 dna, uint price ,address owner);\r\n    event TokenSold(uint indexed tokenId, string name, bytes5 dna, uint sellingPrice, uint newPrice, address indexed oldOwner, address indexed newOwner  );\r\n    \r\n    mapping(uint => address payable) private tokenIdToOwner;\r\n    mapping(uint => uint) private tokenIdToPrice;\r\n    mapping(address => uint) private ownershipTokenCount;\r\n    mapping(uint => address) private tokenIdToApproved;\r\n\r\n    struct Doggy{\r\n        string name;\r\n        bytes5 dna;\r\n    }\r\n\r\n    Doggy[] private doggies;\r\n\r\n    uint private startingPrice = 0.01 ether;\r\n    bool private erc721Enabled = false;\r\n\r\n    modifier onlyERC721(){\r\n        require(erc721Enabled, 'ERC721 not enabled');\r\n        _;\r\n    }\r\n\r\n    function createToken(string memory _name, address _owner, uint _price) public {\r\n            require(_owner != address(0), 'empty address specified');\r\n            require(_price >= startingPrice ,'Price is invalid');\r\n            bytes5 _dna = _generateRandomDna();\r\n            _createToken(_name, _dna, _owner, _price);\r\n    }\r\n    //requires access control modifier\r\n    function createToken(string memory _name) public{\r\n        bytes5 _dna = _generateRandomDna();\r\n        _createToken(_name, _dna, address(this), startingPrice);\r\n    }\r\n\r\n    function _createToken(string memory _name, bytes5 _dna, address _owner, uint _price) private{\r\n        \r\n        Doggy memory _doggy = Doggy({\r\n            name: _name,\r\n            dna:_dna\r\n        });\r\n        uint _newTokenId = doggies.push(_doggy)-1;\r\n        tokenIdToPrice[_newTokenId] = _price;\r\n        emit TokenCreated(_newTokenId, _name, _dna, _price, _owner);\r\n        _transfer(address(0), _owner, _newTokenId);\r\n    }\r\n\r\n    function _generateRandomDna() private view returns (bytes5 _dna) {\r\n        uint256 lastBlockNumber = block.number - 1;\r\n        bytes32 hashVal = bytes32(blockhash(lastBlockNumber));\r\n         assembly {\r\n            _dna := mload(add(hashVal, 0x05))\r\n        }\r\n        \r\n        //bytes5 dna = bytes5((hashVal & bytes32(0xffffffff)) << 216);\r\n        //return dna;\r\n    }\r\n\r\n    function getToken(uint _tokenId) public returns(string memory _tokenName, bytes5 _dna, uint _price, uint _nextPrice, address _owner){\r\n        _tokenName = doggies[_tokenId].name;\r\n        _dna = doggies[_tokenId].dna;\r\n        _price = tokenIdToPrice[_tokenId];\r\n        _nextPrice = nextPriceOf(_tokenId);\r\n        _owner = tokenIdToOwner[_tokenId];\r\n    }\r\n\r\n    function getAllTokens() private returns(uint[] memory, uint[] memory, address[] memory){\r\n        uint total = totalSupply();\r\n        uint[] memory prices = new uint[](total);\r\n        uint[] memory nextPrices = new uint[](total);\r\n        address[] memory owners = new address[](total);\r\n\r\n        for (uint i = 0; i < total; i++) {\r\n            prices[i] = tokenIdToPrice[i];\r\n            nextPrices[i] = nextPriceOf(i);\r\n            owners[i] = tokenIdToOwner[i];\r\n        }\r\n\r\n        return(prices, nextPrices, owners);\r\n     }\r\n\r\n     function getTokensOf(address _owner) public returns(uint[] memory){\r\n         uint tokenCount = balanceOf(_owner);\r\n         if(tokenCount == 0){\r\n             return new uint[](0);\r\n         }else{\r\n             uint[] memory result = new uint[](tokenCount);\r\n             uint total = totalSupply();\r\n             uint resultIndex = 0;\r\n\r\n             for(uint i = 0; i< total; i++){\r\n                 if(tokenIdToOwner[i] == _owner){\r\n                     result[resultIndex] = i;\r\n                     resultIndex++;\r\n                 }\r\n             }\r\n\r\n            return result; \r\n         }\r\n     }\r\n\r\n    function withdrawBalance(uint _amount, address payable _to) public onlyCEO{\r\n         require(_amount <= address(this).balance);\r\n         if(_amount == 0){\r\n             _amount = address(this).balance;\r\n         }\r\n\r\n         if(_to == address(0)){\r\n             ceoAddress.transfer(_amount);\r\n         }else{\r\n             _to.transfer(_amount);\r\n         }\r\n     }\r\n\r\n    function purchase(uint _tokenId) public payable whenNotPaused{\r\n        \r\n       // address oldOwner = ;\r\n        address payable oldOwner = address(uint160(ownerOf(_tokenId)));\r\n        address payable newOwner = msg.sender;\r\n        uint sellingPrice = priceOf(_tokenId);\r\n        require(oldOwner == address(0));\r\n        require(newOwner == address(0));\r\n        require(oldOwner != newOwner);\r\n        require(! _isContract(newOwner));\r\n        require(sellingPrice > 0);\r\n        require(msg.value >= sellingPrice);\r\n        _transfer(oldOwner, newOwner, _tokenId);\r\n\r\n        emit TokenSold(_tokenId, doggies[_tokenId].name,doggies[_tokenId].dna,sellingPrice, priceOf(_tokenId), oldOwner, newOwner);\r\n        uint excess = msg.value.sub(sellingPrice);\r\n        uint contractCut = msg.value.mul(6).div(100);\r\n        if(oldOwner != address(this)){\r\n            oldOwner.transfer(sellingPrice.sub(contractCut));\r\n        }\r\n\r\n        if(excess > 0){\r\n            newOwner.transfer(excess);\r\n        }\r\n    }\r\n\r\n    function priceOf(uint _tokenId) public returns(uint){\r\n        return  tokenIdToPrice[_tokenId];\r\n    }\r\n\r\n    uint private increaseLimit1 = 0.2 ether;\r\n    uint private increaseLimit2 = 0.5 ether;\r\n    uint private increaseLimit3 = 2.0 ether;\r\n    uint private increaseLimit4 = 5.0 ether;\r\n    function nextPriceOf(uint _tokenId) public returns(uint){\r\n        uint _price = priceOf(_tokenId);\r\n        if(_price < increaseLimit1){\r\n            return _price.mul(200).div(95);\r\n        }else if(_price < increaseLimit2){\r\n             return _price.mul(135).div(96); \r\n        }else if(_price < increaseLimit3){\r\n             return _price.mul(125).div(97); \r\n        }else if(_price < increaseLimit4){\r\n             return _price.mul(117).div(97); \r\n        }else{\r\n             return _price.mul(115).div(98); \r\n        }\r\n    }\r\n\r\n    function enableERC721() public onlyCEO{\r\n        erc721Enabled = true;\r\n    }\r\n\r\n    function totalSupply()public returns(uint _totalSupply){\r\n        _totalSupply = doggies.length;\r\n    }\r\n\r\n    function balanceOf(address _owner) public view returns(uint _balance){\r\n        _balance = ownershipTokenCount[_owner];\r\n    }\r\n\r\n    function ownerOf(uint _tokenId) public view returns(address _owner){\r\n       return _owner = address(tokenIdToOwner[_tokenId]);\r\n    }\r\n\r\n    function approve(address _to, uint _tokenId) public whenNotPaused onlyERC721{\r\n        require(_owns(msg.sender, _tokenId));\r\n        tokenIdToApproved[_tokenId] = _to;\r\n        emit Approval(msg.sender, _to, _tokenId);\r\n    }\r\n\r\n    function transferFrom(address _from,address _to, uint _tokenId) public whenNotPaused onlyERC721{\r\n        require(_to != address(0));\r\n        require(_owns(_from, _tokenId));\r\n\r\n        _transfer(_from,_to, _tokenId);\r\n    }\r\n\r\n    function transfer(address _from , address _to, uint _tokenId) public{\r\n        require(_to != address(0));\r\n        require(_owns(msg.sender, _tokenId));\r\n\r\n        _transfer(msg.sender,_to, _tokenId);\r\n    }\r\n\r\n    function implementsERC721() public view whenNotPaused returns(bool){\r\n        return erc721Enabled;\r\n    }\r\n    \r\n    function takeOwnership(uint _tokenId) public whenNotPaused onlyERC721 {\r\n        require(_approved(msg.sender, _tokenId));\r\n        _transfer(tokenIdToOwner[_tokenId],msg.sender, _tokenId);\r\n    }\r\n    \r\n    function name() public view returns(string memory _name){\r\n        return _name = \"CryptoDoggies\";\r\n    }\r\n    \r\n    function symbol() public view returns(string memory _symbol){\r\n        return _symbol = \"CDT\";\r\n    }\r\n    \r\n    function _owns(address _claimant, uint _tokenId) private view returns(bool){\r\n        return tokenIdToOwner[_tokenId] == _claimant;\r\n    }\r\n    \r\n    function _approved(address _to, uint _tokenId) private view returns(bool){\r\n        return tokenIdToApproved[_tokenId] == _to;\r\n    }\r\n    \r\n    function _transfer(address _from, address _to, uint _tokenId) private {\r\n        ownershipTokenCount[_to]++;\r\n        tokenIdToOwner[_tokenId] == _to;\r\n        if(_from != address(0)){\r\n            ownershipTokenCount[_to]--;\r\n            delete tokenIdToApproved[_tokenId];\r\n        }\r\n        \r\n        emit Transfer(_from, _to, _tokenId);\r\n    }\r\n    \r\n    function _isContract(address account) private view returns(bool){\r\n        uint size;\r\n        assembly{size := extcodesize(account)}\r\n        return size > 0;\r\n    }\r\n\r\n}\r\n\r\n\r\n\r\n\r\n",
  "sourcePath": "C:/Users/James/Desktop/NODESTUFF/cryptogame/contracts/Cryptodoggies.sol",
  "compiler": {
    "name": "solc",
    "version": "0.5.0+commit.1d4f565a.Emscripten.clang"
  },
  "schemaVersion": "3.0.2",
  "updatedAt": "2019-06-13T11:14:53.529Z",
  "devdoc": {
    "methods": {
      "AccessControl()": {
        "details": "The AccessControl constructor sets the original C roles of the contract to the sender account"
      },
      "getApproved(uint256)": {
        "details": "Gets the approved address for a token ID, or zero if no address set Reverts if the token ID does not exist.",
        "params": {
          "tokenId": "uint256 ID of the token to query the approval of"
        },
        "return": "address currently approved for the given token ID"
      },
      "isApprovedForAll(address,address)": {
        "details": "Tells whether an operator is approved by a given owner.",
        "params": {
          "operator": "operator address which you want to query the approval of",
          "owner": "owner address which you want to query the approval of"
        },
        "return": "bool whether the given operator is approved by the given owner"
      },
      "isOwner()": {
        "details": "Returns true if the caller is the current owner."
      },
      "owner()": {
        "details": "Returns the address of the current owner."
      },
      "renounceOwnership()": {
        "details": "Leaves the contract without owner. It will not be possible to call `onlyOwner` functions anymore. Can only be called by the current owner.     * > Note: Renouncing ownership will leave the contract without an owner, thereby removing any functionality that is only available to the owner."
      },
      "safeTransferFrom(address,address,uint256)": {
        "details": "Safely transfers the ownership of a given token ID to another address If the target address is a contract, it must implement `onERC721Received`, which is called upon a safe transfer, and return the magic value `bytes4(keccak256(\"onERC721Received(address,address,uint256,bytes)\"))`; otherwise, the transfer is reverted. Requires the msg.sender to be the owner, approved, or operator",
        "params": {
          "from": "current owner of the token",
          "to": "address to receive the ownership of the given token ID",
          "tokenId": "uint256 ID of the token to be transferred"
        }
      },
      "safeTransferFrom(address,address,uint256,bytes)": {
        "details": "Safely transfers the ownership of a given token ID to another address If the target address is a contract, it must implement `onERC721Received`, which is called upon a safe transfer, and return the magic value `bytes4(keccak256(\"onERC721Received(address,address,uint256,bytes)\"))`; otherwise, the transfer is reverted. Requires the msg.sender to be the owner, approved, or operator",
        "params": {
          "_data": "bytes data to send along with a safe transfer check",
          "from": "current owner of the token",
          "to": "address to receive the ownership of the given token ID",
          "tokenId": "uint256 ID of the token to be transferred"
        }
      },
      "setApprovalForAll(address,bool)": {
        "details": "Sets or unsets the approval of a given operator An operator is allowed to transfer all tokens of the sender on their behalf.",
        "params": {
          "approved": "representing the status of the approval to be set",
          "to": "operator address to set the approval"
        }
      },
      "setCEO(address)": {
        "params": {
          "_newCEO": "The address of the new CEO"
        }
      },
      "setCOO(address)": {
        "params": {
          "_newCOO": "The address of the new COO"
        }
      },
      "supportsInterface(bytes4)": {
        "details": "See `IERC165.supportsInterface`.     * Time complexity O(1), guaranteed to always use less than 30 000 gas."
      },
      "transferOwnership(address)": {
        "details": "Transfers ownership of the contract to a new account (`newOwner`). Can only be called by the current owner."
      }
    }
  },
  "userdoc": {
    "methods": {}
  }
}