{
  "contractName": "CryptoDoggies",
  "abi": [
    {
      "constant": true,
      "inputs": [],
      "name": "ceoAddress",
      "outputs": [
        {
          "name": "",
          "type": "address"
        }
      ],
      "payable": false,
      "stateMutability": "view",
      "type": "function"
    },
    {
      "constant": false,
      "inputs": [
        {
          "name": "_newCEO",
          "type": "address"
        }
      ],
      "name": "setCEO",
      "outputs": [],
      "payable": false,
      "stateMutability": "nonpayable",
      "type": "function"
    },
    {
      "constant": false,
      "inputs": [
        {
          "name": "_newCOO",
          "type": "address"
        }
      ],
      "name": "setCOO",
      "outputs": [],
      "payable": false,
      "stateMutability": "nonpayable",
      "type": "function"
    },
    {
      "constant": false,
      "inputs": [],
      "name": "unpause",
      "outputs": [],
      "payable": false,
      "stateMutability": "nonpayable",
      "type": "function"
    },
    {
      "constant": true,
      "inputs": [],
      "name": "paused",
      "outputs": [
        {
          "name": "",
          "type": "bool"
        }
      ],
      "payable": false,
      "stateMutability": "view",
      "type": "function"
    },
    {
      "constant": false,
      "inputs": [],
      "name": "pause",
      "outputs": [],
      "payable": false,
      "stateMutability": "nonpayable",
      "type": "function"
    },
    {
      "constant": true,
      "inputs": [],
      "name": "cooAddress",
      "outputs": [
        {
          "name": "",
          "type": "address"
        }
      ],
      "payable": false,
      "stateMutability": "view",
      "type": "function"
    },
    {
      "anonymous": false,
      "inputs": [
        {
          "indexed": false,
          "name": "tokenId",
          "type": "uint256"
        },
        {
          "indexed": false,
          "name": "name",
          "type": "string"
        },
        {
          "indexed": false,
          "name": "dna",
          "type": "bytes5"
        },
        {
          "indexed": false,
          "name": "price",
          "type": "uint256"
        },
        {
          "indexed": false,
          "name": "owner",
          "type": "address"
        }
      ],
      "name": "TokenCreated",
      "type": "event"
    },
    {
      "anonymous": false,
      "inputs": [
        {
          "indexed": true,
          "name": "tokenId",
          "type": "uint256"
        },
        {
          "indexed": false,
          "name": "name",
          "type": "string"
        },
        {
          "indexed": false,
          "name": "dna",
          "type": "bytes5"
        },
        {
          "indexed": false,
          "name": "sellingPrice",
          "type": "uint256"
        },
        {
          "indexed": false,
          "name": "newPrice",
          "type": "uint256"
        },
        {
          "indexed": true,
          "name": "oldOwner",
          "type": "address"
        },
        {
          "indexed": true,
          "name": "newOwner",
          "type": "address"
        }
      ],
      "name": "TokenSold",
      "type": "event"
    },
    {
      "anonymous": false,
      "inputs": [
        {
          "indexed": true,
          "name": "_from",
          "type": "address"
        },
        {
          "indexed": true,
          "name": "_to",
          "type": "address"
        },
        {
          "indexed": false,
          "name": "_tokenId",
          "type": "uint256"
        }
      ],
      "name": "Transfer",
      "type": "event"
    },
    {
      "anonymous": false,
      "inputs": [
        {
          "indexed": true,
          "name": "_owner",
          "type": "address"
        },
        {
          "indexed": true,
          "name": "_approved",
          "type": "address"
        },
        {
          "indexed": false,
          "name": "_tokenId",
          "type": "uint256"
        }
      ],
      "name": "Approval",
      "type": "event"
    },
    {
      "constant": false,
      "inputs": [
        {
          "name": "_name",
          "type": "string"
        }
      ],
      "name": "createToken",
      "outputs": [],
      "payable": false,
      "stateMutability": "nonpayable",
      "type": "function"
    },
    {
      "constant": false,
      "inputs": [
        {
          "name": "_name",
          "type": "string"
        },
        {
          "name": "_owner",
          "type": "address"
        },
        {
          "name": "_price",
          "type": "uint256"
        }
      ],
      "name": "createToken",
      "outputs": [],
      "payable": false,
      "stateMutability": "nonpayable",
      "type": "function"
    },
    {
      "constant": true,
      "inputs": [
        {
          "name": "_tokenId",
          "type": "uint256"
        }
      ],
      "name": "getToken",
      "outputs": [
        {
          "name": "_tokenName",
          "type": "string"
        },
        {
          "name": "_dna",
          "type": "bytes5"
        },
        {
          "name": "_price",
          "type": "uint256"
        },
        {
          "name": "_nextPrice",
          "type": "uint256"
        },
        {
          "name": "_owner",
          "type": "address"
        }
      ],
      "payable": false,
      "stateMutability": "view",
      "type": "function"
    },
    {
      "constant": true,
      "inputs": [],
      "name": "getAllTokens",
      "outputs": [
        {
          "name": "",
          "type": "uint256[]"
        },
        {
          "name": "",
          "type": "uint256[]"
        },
        {
          "name": "",
          "type": "address[]"
        }
      ],
      "payable": false,
      "stateMutability": "view",
      "type": "function"
    },
    {
      "constant": true,
      "inputs": [
        {
          "name": "_owner",
          "type": "address"
        }
      ],
      "name": "tokensOf",
      "outputs": [
        {
          "name": "",
          "type": "uint256[]"
        }
      ],
      "payable": false,
      "stateMutability": "view",
      "type": "function"
    },
    {
      "constant": false,
      "inputs": [
        {
          "name": "_to",
          "type": "address"
        },
        {
          "name": "_amount",
          "type": "uint256"
        }
      ],
      "name": "withdrawBalance",
      "outputs": [],
      "payable": false,
      "stateMutability": "nonpayable",
      "type": "function"
    },
    {
      "constant": false,
      "inputs": [
        {
          "name": "_tokenId",
          "type": "uint256"
        }
      ],
      "name": "purchase",
      "outputs": [],
      "payable": true,
      "stateMutability": "payable",
      "type": "function"
    },
    {
      "constant": true,
      "inputs": [
        {
          "name": "_tokenId",
          "type": "uint256"
        }
      ],
      "name": "priceOf",
      "outputs": [
        {
          "name": "_price",
          "type": "uint256"
        }
      ],
      "payable": false,
      "stateMutability": "view",
      "type": "function"
    },
    {
      "constant": true,
      "inputs": [
        {
          "name": "_tokenId",
          "type": "uint256"
        }
      ],
      "name": "nextPriceOf",
      "outputs": [
        {
          "name": "_nextPrice",
          "type": "uint256"
        }
      ],
      "payable": false,
      "stateMutability": "view",
      "type": "function"
    },
    {
      "constant": false,
      "inputs": [],
      "name": "enableERC721",
      "outputs": [],
      "payable": false,
      "stateMutability": "nonpayable",
      "type": "function"
    },
    {
      "constant": true,
      "inputs": [],
      "name": "totalSupply",
      "outputs": [
        {
          "name": "_totalSupply",
          "type": "uint256"
        }
      ],
      "payable": false,
      "stateMutability": "view",
      "type": "function"
    },
    {
      "constant": true,
      "inputs": [
        {
          "name": "_owner",
          "type": "address"
        }
      ],
      "name": "balanceOf",
      "outputs": [
        {
          "name": "_balance",
          "type": "uint256"
        }
      ],
      "payable": false,
      "stateMutability": "view",
      "type": "function"
    },
    {
      "constant": true,
      "inputs": [
        {
          "name": "_tokenId",
          "type": "uint256"
        }
      ],
      "name": "ownerOf",
      "outputs": [
        {
          "name": "_owner",
          "type": "address"
        }
      ],
      "payable": false,
      "stateMutability": "view",
      "type": "function"
    },
    {
      "constant": false,
      "inputs": [
        {
          "name": "_to",
          "type": "address"
        },
        {
          "name": "_tokenId",
          "type": "uint256"
        }
      ],
      "name": "approve",
      "outputs": [],
      "payable": false,
      "stateMutability": "nonpayable",
      "type": "function"
    },
    {
      "constant": false,
      "inputs": [
        {
          "name": "_from",
          "type": "address"
        },
        {
          "name": "_to",
          "type": "address"
        },
        {
          "name": "_tokenId",
          "type": "uint256"
        }
      ],
      "name": "transferFrom",
      "outputs": [],
      "payable": false,
      "stateMutability": "nonpayable",
      "type": "function"
    },
    {
      "constant": false,
      "inputs": [
        {
          "name": "_to",
          "type": "address"
        },
        {
          "name": "_tokenId",
          "type": "uint256"
        }
      ],
      "name": "transfer",
      "outputs": [],
      "payable": false,
      "stateMutability": "nonpayable",
      "type": "function"
    },
    {
      "constant": true,
      "inputs": [],
      "name": "implementsERC721",
      "outputs": [
        {
          "name": "",
          "type": "bool"
        }
      ],
      "payable": false,
      "stateMutability": "view",
      "type": "function"
    },
    {
      "constant": false,
      "inputs": [
        {
          "name": "_tokenId",
          "type": "uint256"
        }
      ],
      "name": "takeOwnership",
      "outputs": [],
      "payable": false,
      "stateMutability": "nonpayable",
      "type": "function"
    },
    {
      "constant": true,
      "inputs": [],
      "name": "name",
      "outputs": [
        {
          "name": "_name",
          "type": "string"
        }
      ],
      "payable": false,
      "stateMutability": "view",
      "type": "function"
    },
    {
      "constant": true,
      "inputs": [],
      "name": "symbol",
      "outputs": [
        {
          "name": "_symbol",
          "type": "string"
        }
      ],
      "payable": false,
      "stateMutability": "view",
      "type": "function"
    }
  ],
  "bytecode": "0x60806040526000600160146101000a81548160ff021916908315150217905550662386f26fc100006002556000600360006101000a81548160ff02191690831515021790555066470de4df8200006009556706f05b59d3b20000600a55671bc16d674ec80000600b55674563918244f40000600c55336000806101000a81548173ffffffffffffffffffffffffffffffffffffffff021916908373ffffffffffffffffffffffffffffffffffffffff16021790555033600160006101000a81548173ffffffffffffffffffffffffffffffffffffffff021916908373ffffffffffffffffffffffffffffffffffffffff1602179055506127c0806101046000396000f30060806040526004361061015f576000357c0100000000000000000000000000000000000000000000000000000000900463ffffffff16806306fdde0314610164578063095ea7b3146101f45780630a0f8168146102415780630cf20cc9146102985780631051db34146102e557806318160ddd1461031457806323b872dd1461033f57806327d7874c146103ac5780632a5c792a146103ef5780632ba73c15146104eb5780633f4ba83a1461052e57806345576f94146105455780635a3f2672146105ae5780635ba9e48e146106465780635c975abb146106875780636352211e146106b657806370a082311461072357806371dc761e1461077a57806373b4df05146107915780638456cb591461082457806395d89b411461083b578063a9059cbb146108cb578063b047fb5014610918578063b2e6ceeb1461096f578063b9186d7d1461099c578063e4b50cb8146109dd578063efef39a114610b07575b600080fd5b34801561017057600080fd5b50610179610b27565b6040518080602001828103825283818151815260200191508051906020019080838360005b838110156101b957808201518184015260208101905061019e565b50505050905090810190601f1680156101e65780820380516001836020036101000a031916815260200191505b509250505060405180910390f35b34801561020057600080fd5b5061023f600480360381019080803573ffffffffffffffffffffffffffffffffffffffff16906020019092919080359060200190929190505050610b64565b005b34801561024d57600080fd5b50610256610c6b565b604051808273ffffffffffffffffffffffffffffffffffffffff1673ffffffffffffffffffffffffffffffffffffffff16815260200191505060405180910390f35b3480156102a457600080fd5b506102e3600480360381019080803573ffffffffffffffffffffffffffffffffffffffff16906020019092919080359060200190929190505050610c90565b005b3480156102f157600080fd5b506102fa610e23565b604051808215151515815260200191505060405180910390f35b34801561032057600080fd5b50610329610e56565b6040518082815260200191505060405180910390f35b34801561034b57600080fd5b506103aa600480360381019080803573ffffffffffffffffffffffffffffffffffffffff169060200190929190803573ffffffffffffffffffffffffffffffffffffffff16906020019092919080359060200190929190505050610e63565b005b3480156103b857600080fd5b506103ed600480360381019080803573ffffffffffffffffffffffffffffffffffffffff169060200190929190505050610f10565b005b3480156103fb57600080fd5b50610404610fea565b60405180806020018060200180602001848103845287818151815260200191508051906020019060200280838360005b8381101561044f578082015181840152602081019050610434565b50505050905001848103835286818151815260200191508051906020019060200280838360005b83811015610491578082015181840152602081019050610476565b50505050905001848103825285818151815260200191508051906020019060200280838360005b838110156104d35780820151818401526020810190506104b8565b50505050905001965050505050505060405180910390f35b3480156104f757600080fd5b5061052c600480360381019080803573ffffffffffffffffffffffffffffffffffffffff169060200190929190505050611198565b005b34801561053a57600080fd5b50610543611273565b005b34801561055157600080fd5b506105ac600480360381019080803590602001908201803590602001908080601f0160208091040260200160405190810160405280939291908181526020018383808284378201915050505050509192919290505050611306565b005b3480156105ba57600080fd5b506105ef600480360381019080803573ffffffffffffffffffffffffffffffffffffffff1690602001909291905050506113d7565b6040518080602001828103825283818151815260200191508051906020019060200280838360005b83811015610632578082015181840152602081019050610617565b505050509050019250505060405180910390f35b34801561065257600080fd5b5061067160048036038101908080359060200190929190505050611523565b6040518082815260200191505060405180910390f35b34801561069357600080fd5b5061069c611641565b604051808215151515815260200191505060405180910390f35b3480156106c257600080fd5b506106e160048036038101908080359060200190929190505050611654565b604051808273ffffffffffffffffffffffffffffffffffffffff1673ffffffffffffffffffffffffffffffffffffffff16815260200191505060405180910390f35b34801561072f57600080fd5b50610764600480360381019080803573ffffffffffffffffffffffffffffffffffffffff169060200190929190505050611691565b6040518082815260200191505060405180910390f35b34801561078657600080fd5b5061078f6116da565b005b34801561079d57600080fd5b50610822600480360381019080803590602001908201803590602001908080601f0160208091040260200160405190810160405280939291908181526020018383808284378201915050505050509192919290803573ffffffffffffffffffffffffffffffffffffffff16906020019092919080359060200190929190505050611752565b005b34801561083057600080fd5b5061083961197f565b005b34801561084757600080fd5b50610850611a12565b6040518080602001828103825283818151815260200191508051906020019080838360005b83811015610890578082015181840152602081019050610875565b50505050905090810190601f1680156108bd5780820380516001836020036101000a031916815260200191505b509250505060405180910390f35b3480156108d757600080fd5b50610916600480360381019080803573ffffffffffffffffffffffffffffffffffffffff16906020019092919080359060200190929190505050611a4f565b005b34801561092457600080fd5b5061092d611ae6565b604051808273ffffffffffffffffffffffffffffffffffffffff1673ffffffffffffffffffffffffffffffffffffffff16815260200191505060405180910390f35b34801561097b57600080fd5b5061099a60048036038101908080359060200190929190505050611b0c565b005b3480156109a857600080fd5b506109c760048036038101908080359060200190929190505050611b99565b6040518082815260200191505060405180910390f35b3480156109e957600080fd5b50610a0860048036038101908080359060200190929190505050611bb6565b6040518080602001867affffffffffffffffffffffffffffffffffffffffffffffffffffff19167affffffffffffffffffffffffffffffffffffffffffffffffffffff191681526020018581526020018481526020018373ffffffffffffffffffffffffffffffffffffffff1673ffffffffffffffffffffffffffffffffffffffff168152602001828103825287818151815260200191508051906020019080838360005b83811015610ac8578082015181840152602081019050610aad565b50505050905090810190601f168015610af55780820380516001836020036101000a031916815260200191505b50965050505050505060405180910390f35b610b2560048036038101908080359060200190929190505050611d24565b005b60606040805190810160405280600d81526020017f43727970746f446f676769657300000000000000000000000000000000000000815250905090565b600160149054906101000a900460ff16151515610b8057600080fd5b600360009054906101000a900460ff161515610b9b57600080fd5b610ba53382612143565b1515610bb057600080fd5b816007600083815260200190815260200160002060006101000a81548173ffffffffffffffffffffffffffffffffffffffff021916908373ffffffffffffffffffffffffffffffffffffffff1602179055508173ffffffffffffffffffffffffffffffffffffffff163373ffffffffffffffffffffffffffffffffffffffff167f8c5be1e5ebec7d5bd14f71427d1e84f3dd0314c0f7b2291e5b200ac8c7c3b925836040518082815260200191505060405180910390a35050565b6000809054906101000a900473ffffffffffffffffffffffffffffffffffffffff1681565b6000809054906101000a900473ffffffffffffffffffffffffffffffffffffffff1673ffffffffffffffffffffffffffffffffffffffff163373ffffffffffffffffffffffffffffffffffffffff16141515610ceb57600080fd5b3073ffffffffffffffffffffffffffffffffffffffff16318111151515610d1157600080fd5b6000811415610d35573073ffffffffffffffffffffffffffffffffffffffff163190505b600073ffffffffffffffffffffffffffffffffffffffff168273ffffffffffffffffffffffffffffffffffffffff161415610dd7576000809054906101000a900473ffffffffffffffffffffffffffffffffffffffff1673ffffffffffffffffffffffffffffffffffffffff166108fc829081150290604051600060405180830381858888f19350505050158015610dd1573d6000803e3d6000fd5b50610e1f565b8173ffffffffffffffffffffffffffffffffffffffff166108fc829081150290604051600060405180830381858888f19350505050158015610e1d573d6000803e3d6000fd5b505b5050565b6000600160149054906101000a900460ff16151515610e4157600080fd5b600360009054906101000a900460ff16905090565b6000600880549050905090565b600160149054906101000a900460ff16151515610e7f57600080fd5b600360009054906101000a900460ff161515610e9a57600080fd5b600073ffffffffffffffffffffffffffffffffffffffff168273ffffffffffffffffffffffffffffffffffffffff1614151515610ed657600080fd5b610ee08382612143565b1515610eeb57600080fd5b610ef533826121af565b1515610f0057600080fd5b610f0b83838361221b565b505050565b6000809054906101000a900473ffffffffffffffffffffffffffffffffffffffff1673ffffffffffffffffffffffffffffffffffffffff163373ffffffffffffffffffffffffffffffffffffffff16141515610f6b57600080fd5b600073ffffffffffffffffffffffffffffffffffffffff168173ffffffffffffffffffffffffffffffffffffffff1614151515610fa757600080fd5b806000806101000a81548173ffffffffffffffffffffffffffffffffffffffff021916908373ffffffffffffffffffffffffffffffffffffffff16021790555050565b6060806060600060608060606000611000610e56565b9450846040519080825280602002602001820160405280156110315781602001602082028038833980820191505090505b509350846040519080825280602002602001820160405280156110635781602001602082028038833980820191505090505b509250846040519080825280602002602001820160405280156110955781602001602082028038833980820191505090505b509150600090505b8481101561118557600560008281526020019081526020016000205484828151811015156110c757fe5b90602001906020020181815250506110de81611523565b83828151811015156110ec57fe5b90602001906020020181815250506004600082815260200190815260200160002060009054906101000a900473ffffffffffffffffffffffffffffffffffffffff16828281518110151561113c57fe5b9060200190602002019073ffffffffffffffffffffffffffffffffffffffff16908173ffffffffffffffffffffffffffffffffffffffff1681525050808060010191505061109d565b8383839750975097505050505050909192565b6000809054906101000a900473ffffffffffffffffffffffffffffffffffffffff1673ffffffffffffffffffffffffffffffffffffffff163373ffffffffffffffffffffffffffffffffffffffff161415156111f357600080fd5b600073ffffffffffffffffffffffffffffffffffffffff168173ffffffffffffffffffffffffffffffffffffffff161415151561122f57600080fd5b80600160006101000a81548173ffffffffffffffffffffffffffffffffffffffff021916908373ffffffffffffffffffffffffffffffffffffffff16021790555050565b6000809054906101000a900473ffffffffffffffffffffffffffffffffffffffff1673ffffffffffffffffffffffffffffffffffffffff163373ffffffffffffffffffffffffffffffffffffffff161415156112ce57600080fd5b600160149054906101000a900460ff1615156112e957600080fd5b6000600160146101000a81548160ff021916908315150217905550565b60008060009054906101000a900473ffffffffffffffffffffffffffffffffffffffff1673ffffffffffffffffffffffffffffffffffffffff163373ffffffffffffffffffffffffffffffffffffffff1614806113b05750600160009054906101000a900473ffffffffffffffffffffffffffffffffffffffff1673ffffffffffffffffffffffffffffffffffffffff163373ffffffffffffffffffffffffffffffffffffffff16145b15156113bb57600080fd5b6113c36123e3565b90506113d3828230600254612413565b5050565b60606000606060008060006113eb87611691565b9450600085141561142e5760006040519080825280602002602001820160405280156114265781602001602082028038833980820191505090505b509550611519565b8460405190808252806020026020018201604052801561145d5781602001602082028038833980820191505090505b509350611468610e56565b925060009150600090505b82811015611515578673ffffffffffffffffffffffffffffffffffffffff166004600083815260200190815260200160002060009054906101000a900473ffffffffffffffffffffffffffffffffffffffff1673ffffffffffffffffffffffffffffffffffffffff161415611508578084838151811015156114f157fe5b906020019060200201818152505081806001019250505b8080600101915050611473565b8395505b5050505050919050565b60008061152f83611b99565b905060095481101561156957611562605f61155460c88461263590919063ffffffff16565b61267090919063ffffffff16565b915061163b565b600a548110156115a15761159a606061158c60878461263590919063ffffffff16565b61267090919063ffffffff16565b915061163b565b600b548110156115d9576115d260616115c4607d8461263590919063ffffffff16565b61267090919063ffffffff16565b915061163b565b600c548110156116115761160a60616115fc60758461263590919063ffffffff16565b61267090919063ffffffff16565b915061163b565b611638606261162a60738461263590919063ffffffff16565b61267090919063ffffffff16565b91505b50919050565b600160149054906101000a900460ff1681565b60006004600083815260200190815260200160002060009054906101000a900473ffffffffffffffffffffffffffffffffffffffff169050919050565b6000600660008373ffffffffffffffffffffffffffffffffffffffff1673ffffffffffffffffffffffffffffffffffffffff168152602001908152602001600020549050919050565b6000809054906101000a900473ffffffffffffffffffffffffffffffffffffffff1673ffffffffffffffffffffffffffffffffffffffff163373ffffffffffffffffffffffffffffffffffffffff1614151561173557600080fd5b6001600360006101000a81548160ff021916908315150217905550565b60008060009054906101000a900473ffffffffffffffffffffffffffffffffffffffff1673ffffffffffffffffffffffffffffffffffffffff163373ffffffffffffffffffffffffffffffffffffffff1614806117fc5750600160009054906101000a900473ffffffffffffffffffffffffffffffffffffffff1673ffffffffffffffffffffffffffffffffffffffff163373ffffffffffffffffffffffffffffffffffffffff16145b151561180757600080fd5b600073ffffffffffffffffffffffffffffffffffffffff168373ffffffffffffffffffffffffffffffffffffffff16141515156118ac576040517f08c379a00000000000000000000000000000000000000000000000000000000081526004018080602001828103825260188152602001807f4f776e657220616464726573732063616e27742062652030000000000000000081525060200191505060405180910390fd5b6002548211151561194b576040517f08c379a000000000000000000000000000000000000000000000000000000000815260040180806020018281038252602b8152602001807f50726963652073686f756c642062652067726561746572207468616e2073746181526020017f7274696e6720707269636500000000000000000000000000000000000000000081525060400191505060405180910390fd5b60007b0100000000000000000000000000000000000000000000000000000002905061197984828585612413565b50505050565b6000809054906101000a900473ffffffffffffffffffffffffffffffffffffffff1673ffffffffffffffffffffffffffffffffffffffff163373ffffffffffffffffffffffffffffffffffffffff161415156119da57600080fd5b600160149054906101000a900460ff161515156119f657600080fd5b60018060146101000a81548160ff021916908315150217905550565b60606040805190810160405280600381526020017f4344540000000000000000000000000000000000000000000000000000000000815250905090565b600160149054906101000a900460ff16151515611a6b57600080fd5b600360009054906101000a900460ff161515611a8657600080fd5b600073ffffffffffffffffffffffffffffffffffffffff168273ffffffffffffffffffffffffffffffffffffffff1614151515611ac257600080fd5b611acc3382612143565b1515611ad757600080fd5b611ae233838361221b565b5050565b600160009054906101000a900473ffffffffffffffffffffffffffffffffffffffff1681565b600160149054906101000a900460ff16151515611b2857600080fd5b600360009054906101000a900460ff161515611b4357600080fd5b611b4d33826121af565b1515611b5857600080fd5b611b966004600083815260200190815260200160002060009054906101000a900473ffffffffffffffffffffffffffffffffffffffff16338361221b565b50565b600060056000838152602001908152602001600020549050919050565b6060600080600080600886815481101515611bcd57fe5b90600052602060002090600202016000018054600181600116156101000203166002900480601f016020809104026020016040519081016040528092919081815260200182805460018160011615610100020316600290048015611c725780601f10611c4757610100808354040283529160200191611c72565b820191906000526020600020905b815481529060010190602001808311611c5557829003601f168201915b50505050509450600886815481101515611c8857fe5b906000526020600020906002020160010160009054906101000a90047b0100000000000000000000000000000000000000000000000000000002935060056000878152602001908152602001600020549250611ce386611523565b91506004600087815260200190815260200160002060009054906101000a900473ffffffffffffffffffffffffffffffffffffffff16905091939590929450565b6000806000806000600160149054906101000a900460ff16151515611d4857600080fd5b611d5186611654565b9450339350611d5f86611b99565b9250600073ffffffffffffffffffffffffffffffffffffffff168573ffffffffffffffffffffffffffffffffffffffff1614151515611d9d57600080fd5b600073ffffffffffffffffffffffffffffffffffffffff168473ffffffffffffffffffffffffffffffffffffffff1614151515611dd957600080fd5b8373ffffffffffffffffffffffffffffffffffffffff168573ffffffffffffffffffffffffffffffffffffffff1614151515611e1457600080fd5b611e1d8461268b565b151515611e2957600080fd5b600083111515611e3857600080fd5b823410151515611e4757600080fd5b611e5285858861221b565b611e5b86611523565b60056000888152602001908152602001600020819055508373ffffffffffffffffffffffffffffffffffffffff168573ffffffffffffffffffffffffffffffffffffffff16877f47c2495ae9a226645e2cfa7b81ab70c2d82f35b0c69a72358812cca2f0f0bcbc60088a815481101515611ed157fe5b906000526020600020906002020160000160088b815481101515611ef157fe5b906000526020600020906002020160010160009054906101000a90047b010000000000000000000000000000000000000000000000000000000288611f358d611b99565b6040518080602001857affffffffffffffffffffffffffffffffffffffffffffffffffffff19167affffffffffffffffffffffffffffffffffffffffffffffffffffff1916815260200184815260200183815260200182810382528681815460018160011615610100020316600290048152602001915080546001816001161561010002031660029004801561200c5780601f10611fe15761010080835404028352916020019161200c565b820191906000526020600020905b815481529060010190602001808311611fef57829003601f168201915b50509550505050505060405180910390a4612030833461269e90919063ffffffff16565b9150612059606461204b60068661263590919063ffffffff16565b61267090919063ffffffff16565b90503073ffffffffffffffffffffffffffffffffffffffff168573ffffffffffffffffffffffffffffffffffffffff161415156120ea578473ffffffffffffffffffffffffffffffffffffffff166108fc6120bd838661269e90919063ffffffff16565b9081150290604051600060405180830381858888f193505050501580156120e8573d6000803e3d6000fd5b505b600082111561213b578373ffffffffffffffffffffffffffffffffffffffff166108fc839081150290604051600060405180830381858888f19350505050158015612139573d6000803e3d6000fd5b505b505050505050565b60008273ffffffffffffffffffffffffffffffffffffffff166004600084815260200190815260200160002060009054906101000a900473ffffffffffffffffffffffffffffffffffffffff1673ffffffffffffffffffffffffffffffffffffffff1614905092915050565b60008273ffffffffffffffffffffffffffffffffffffffff166007600084815260200190815260200160002060009054906101000a900473ffffffffffffffffffffffffffffffffffffffff1673ffffffffffffffffffffffffffffffffffffffff1614905092915050565b600660008373ffffffffffffffffffffffffffffffffffffffff1673ffffffffffffffffffffffffffffffffffffffff16815260200190815260200160002060008154809291906001019190505550816004600083815260200190815260200160002060006101000a81548173ffffffffffffffffffffffffffffffffffffffff021916908373ffffffffffffffffffffffffffffffffffffffff160217905550600073ffffffffffffffffffffffffffffffffffffffff168373ffffffffffffffffffffffffffffffffffffffff1614151561237957600660008473ffffffffffffffffffffffffffffffffffffffff1673ffffffffffffffffffffffffffffffffffffffff16815260200190815260200160002060008154809291906001900391905055506007600082815260200190815260200160002060006101000a81549073ffffffffffffffffffffffffffffffffffffffff02191690555b8173ffffffffffffffffffffffffffffffffffffffff168373ffffffffffffffffffffffffffffffffffffffff167fddf252ad1be2c89b69c2b068fc378daa952ba7f163c4a11628f55a4df523b3ef836040518082815260200191505060405180910390a3505050565b6000806000806001430392508240915060d863ffffffff6001028316600019169060020a02905080935050505090565b61241b6126b7565b60006040805190810160405280878152602001867affffffffffffffffffffffffffffffffffffffffffffffffffffff19168152509150600160088390806001815401808255809150509060018203906000526020600020906002020160009091929091909150600082015181600001908051906020019061249e9291906126ef565b5060208201518160010160006101000a81548164ffffffffff02191690837b010000000000000000000000000000000000000000000000000000009004021790555050500390508260056000838152602001908152602001600020819055507fe2541836f6f02475fc0b01a06c1e80d7e5098215c6015348851ceabef9d05e6881878786886040518086815260200180602001857affffffffffffffffffffffffffffffffffffffffffffffffffffff19167affffffffffffffffffffffffffffffffffffffffffffffffffffff191681526020018481526020018373ffffffffffffffffffffffffffffffffffffffff1673ffffffffffffffffffffffffffffffffffffffff168152602001828103825286818151815260200191508051906020019080838360005b838110156125e35780820151818401526020810190506125c8565b50505050905090810190601f1680156126105780820380516001836020036101000a031916815260200191505b50965050505050505060405180910390a161262d6000858361221b565b505050505050565b600080600084141561264a5760009150612669565b828402905082848281151561265b57fe5b0414151561266557fe5b8091505b5092915050565b600080828481151561267e57fe5b0490508091505092915050565b600080823b905060008111915050919050565b60008282111515156126ac57fe5b818303905092915050565b60408051908101604052806060815260200160007affffffffffffffffffffffffffffffffffffffffffffffffffffff191681525090565b828054600181600116156101000203166002900490600052602060002090601f016020900481019282601f1061273057805160ff191683800117855561275e565b8280016001018555821561275e579182015b8281111561275d578251825591602001919060010190612742565b5b50905061276b919061276f565b5090565b61279191905b8082111561278d576000816000905550600101612775565b5090565b905600a165627a7a72305820a217583eb642695df7a11465f7438a95f38f8f90fcdf6f98cff30335b36a3bb40029",
  "source": "pragma solidity >=0.4.24 < 0.5.0;\r\n\r\n\r\nimport \"./ERC721/SafeMath.sol\";\r\nimport \"./ERC721/AccessControl.sol\";\r\nimport \"./ERC721/DoggyERC721.sol\";\r\n\r\ncontract CryptoDoggies is AccessControl, DetailedERC721 {\r\n    using SafeMath for uint256;\r\n    \r\n    uint256 private startingPrice = 0.01 ether;\r\n    bool private erc721Enabled = false;\r\n\r\n    event TokenCreated(uint256 tokenId, string name, bytes5 dna, uint256 price, address owner);\r\n    event TokenSold(\r\n        uint256 indexed tokenId,\r\n        string name,\r\n        bytes5 dna,\r\n        uint256 sellingPrice,\r\n        uint256 newPrice,\r\n        address indexed oldOwner,\r\n        address indexed newOwner\r\n        );\r\n\r\n    mapping (uint256 => address) private tokenIdToOwner;\r\n    mapping (uint256 => uint256) private tokenIdToPrice;\r\n    mapping (address => uint256) private ownershipTokenCount;\r\n    mapping (uint256 => address) private tokenIdToApproved;\r\n\r\n    struct Doggy {\r\n        string name;\r\n        bytes5 dna;\r\n    }\r\n\r\n    Doggy[] private doggies;\r\n\r\n\r\n\r\n    modifier onlyERC721() {\r\n        require(erc721Enabled);\r\n        _;\r\n    }\r\n\r\n    function createToken(string _name, address _owner, uint256 _price) public  onlyCLevel{\r\n        require(_owner != address(0), \"Owner address can't be 0\");\r\n        require(_price > startingPrice, \"Price should be greater than starting price\");\r\n\r\n        //bytes5 _dna = _generateRandomDna();\r\n        bytes5 _dna = 0x00000000;\r\n        _createToken(_name, _dna, _owner, _price);\r\n    }\r\n\r\n    function createToken(string _name) public onlyCLevel {\r\n        bytes5 _dna = _generateRandomDna();\r\n        _createToken(_name, _dna, address(this), startingPrice);\r\n    }\r\n\r\n    function _generateRandomDna() private view returns (bytes5) {\r\n        uint256 lastBlockNumber = block.number - 1;\r\n        bytes32 hashVal = bytes32(blockhash(lastBlockNumber));\r\n        bytes5 dna = bytes5((hashVal & 0xffffffff) << 216);\r\n        return dna;\r\n    }\r\n\r\n    function _createToken(string _name, bytes5 _dna, address _owner, uint256 _price) private {\r\n        Doggy memory _doggy = Doggy({\r\n            name: _name,\r\n            dna: _dna\r\n        });\r\n        uint256 newTokenId = doggies.push(_doggy) - 1;\r\n        tokenIdToPrice[newTokenId] = _price;\r\n\r\n        emit TokenCreated(newTokenId, _name, _dna, _price, _owner);\r\n\r\n        _transfer(address(0), _owner, newTokenId);\r\n    }\r\n\r\n    function getToken(uint256 _tokenId) public view returns (\r\n        string _tokenName,\r\n        bytes5 _dna,\r\n        uint256 _price,\r\n        uint256 _nextPrice,\r\n        address _owner\r\n    ) {\r\n        _tokenName = doggies[_tokenId].name;\r\n        _dna = doggies[_tokenId].dna;\r\n        _price = tokenIdToPrice[_tokenId];\r\n        _nextPrice = nextPriceOf(_tokenId);\r\n        _owner = tokenIdToOwner[_tokenId];\r\n    }\r\n\r\n    function getAllTokens() public view returns (\r\n        uint256[],\r\n        uint256[],\r\n        address[]\r\n    ) {\r\n        uint256 total = totalSupply();\r\n        uint256[] memory prices = new uint256[](total);\r\n        uint256[] memory nextPrices = new uint256[](total);\r\n        address[] memory owners = new address[](total);\r\n\r\n        for (uint256 i = 0; i < total; i++) {\r\n            prices[i] = tokenIdToPrice[i];\r\n            nextPrices[i] = nextPriceOf(i);\r\n            owners[i] = tokenIdToOwner[i];\r\n        }\r\n\r\n        return (prices, nextPrices, owners);\r\n    }\r\n\r\n    function tokensOf(address _owner) public view returns(uint256[]) {\r\n        uint256 tokenCount = balanceOf(_owner);\r\n        if (tokenCount == 0) {\r\n            return new uint256[](0);\r\n        } else {\r\n            uint256[] memory result = new uint256[](tokenCount);\r\n            uint256 total = totalSupply();\r\n            uint256 resultIndex = 0;\r\n\r\n            for (uint256 i = 0; i < total; i++) {\r\n                if (tokenIdToOwner[i] == _owner) {\r\n                    result[resultIndex] = i;\r\n                    resultIndex++;\r\n                }\r\n            }\r\n            return result;\r\n        }\r\n    }\r\n\r\n    function withdrawBalance(address _to, uint256 _amount) public onlyCEO {\r\n        require(_amount <= address(this).balance);\r\n\r\n        if (_amount == 0) {\r\n            _amount = address(this).balance;\r\n        }\r\n\r\n        if (_to == address(0)) {\r\n            ceoAddress.transfer(_amount);\r\n        } else {\r\n            _to.transfer(_amount);\r\n        }\r\n    }\r\n\r\n    function purchase(uint256 _tokenId) public payable whenNotPaused {\r\n        address oldOwner = ownerOf(_tokenId);\r\n        address newOwner = msg.sender;\r\n        uint256 sellingPrice = priceOf(_tokenId);\r\n\r\n        require(oldOwner != address(0));\r\n        require(newOwner != address(0));\r\n        require(oldOwner != newOwner);\r\n        require(!_isContract(newOwner));\r\n        require(sellingPrice > 0);\r\n        require(msg.value >= sellingPrice);\r\n\r\n        _transfer(oldOwner, newOwner, _tokenId);\r\n        tokenIdToPrice[_tokenId] = nextPriceOf(_tokenId);\r\n        emit TokenSold(\r\n            _tokenId,\r\n            doggies[_tokenId].name,\r\n            doggies[_tokenId].dna,\r\n            sellingPrice,\r\n            priceOf(_tokenId),\r\n            oldOwner,\r\n            newOwner\r\n        );\r\n\r\n        uint256 excess = msg.value.sub(sellingPrice);\r\n        uint256 contractCut = sellingPrice.mul(6).div(100); // 6% cut\r\n\r\n        if (oldOwner != address(this)) {\r\n            oldOwner.transfer(sellingPrice.sub(contractCut));\r\n        }\r\n\r\n        if (excess > 0) {\r\n            newOwner.transfer(excess);\r\n        }\r\n    }\r\n\r\n    function priceOf(uint256 _tokenId) public view returns (uint256 _price) {\r\n        return tokenIdToPrice[_tokenId];\r\n    }\r\n\r\n    uint256 private increaseLimit1 = 0.02 ether;\r\n    uint256 private increaseLimit2 = 0.5 ether;\r\n    uint256 private increaseLimit3 = 2.0 ether;\r\n    uint256 private increaseLimit4 = 5.0 ether;\r\n\r\n    function nextPriceOf(uint256 _tokenId) public view returns (uint256 _nextPrice) {\r\n        uint256 _price = priceOf(_tokenId);\r\n        if (_price < increaseLimit1) {\r\n            return _price.mul(200).div(95);\r\n        } else if (_price < increaseLimit2) {\r\n            return _price.mul(135).div(96);\r\n        } else if (_price < increaseLimit3) {\r\n            return _price.mul(125).div(97);\r\n        } else if (_price < increaseLimit4) {\r\n            return _price.mul(117).div(97);\r\n        } else {\r\n            return _price.mul(115).div(98);\r\n        }\r\n    }\r\n\r\n    function enableERC721() public onlyCEO {\r\n        erc721Enabled = true;\r\n    }\r\n\r\n    function totalSupply() public view returns (uint256 _totalSupply) {\r\n        _totalSupply = doggies.length;\r\n    }\r\n\r\n    function balanceOf(address _owner) public view returns (uint256 _balance) {\r\n        _balance = ownershipTokenCount[_owner];\r\n    }\r\n\r\n    function ownerOf(uint256 _tokenId) public view returns (address _owner) {\r\n        _owner = tokenIdToOwner[_tokenId];\r\n    }\r\n\r\n    function approve(address _to, uint256 _tokenId) public whenNotPaused onlyERC721 {\r\n        require(_owns(msg.sender, _tokenId));\r\n        tokenIdToApproved[_tokenId] = _to;\r\n        emit Approval(msg.sender, _to, _tokenId);\r\n    }\r\n\r\n    function transferFrom(address _from, address _to, uint256 _tokenId) public whenNotPaused onlyERC721 {\r\n        require(_to != address(0));\r\n        require(_owns(_from, _tokenId));\r\n        require(_approved(msg.sender, _tokenId));\r\n\r\n        _transfer(_from, _to, _tokenId);\r\n    }\r\n\r\n    function transfer(address _to, uint256 _tokenId) public whenNotPaused onlyERC721 {\r\n        require(_to != address(0));\r\n        require(_owns(msg.sender, _tokenId));\r\n\r\n        _transfer(msg.sender, _to, _tokenId);\r\n    }\r\n\r\n    function implementsERC721() public view whenNotPaused returns (bool) {\r\n        return erc721Enabled;\r\n    }\r\n\r\n    function takeOwnership(uint256 _tokenId) public whenNotPaused onlyERC721 {\r\n        require(_approved(msg.sender, _tokenId));\r\n        _transfer(tokenIdToOwner[_tokenId], msg.sender, _tokenId);\r\n    }\r\n\r\n    function name() public view returns (string _name) {\r\n        _name = \"CryptoDoggies\";\r\n    }\r\n\r\n    function symbol() public view returns (string _symbol) {\r\n        _symbol = \"CDT\";\r\n    }\r\n\r\n    function _owns(address _claimant, uint256 _tokenId) private view returns (bool) {\r\n        return tokenIdToOwner[_tokenId] == _claimant;\r\n    }\r\n\r\n    function _approved(address _to, uint256 _tokenId) private view returns (bool) {\r\n        return tokenIdToApproved[_tokenId] == _to;\r\n    }\r\n\r\n    function _transfer(address _from, address _to, uint256 _tokenId) private {\r\n        ownershipTokenCount[_to]++;\r\n        tokenIdToOwner[_tokenId] = _to;\r\n\r\n        if (_from != address(0)) {\r\n            ownershipTokenCount[_from]--;\r\n            delete tokenIdToApproved[_tokenId];\r\n        }\r\n\r\n        emit Transfer(_from, _to, _tokenId);\r\n    }\r\n\r\n    function _isContract(address addr) private view returns (bool) {\r\n        uint256 size;\r\n        assembly { size := extcodesize(addr) }\r\n        return size > 0;\r\n    }\r\n}",
  "sourcePath": "C:/Users/James/Desktop/NODESTUFF/NEW-BC-PROJECTS/CRYPTO-DOGGIES/contracts/CryptoDoggies.sol",
  "compiler": {
    "name": "solc",
    "version": "0.4.25+commit.59dbf8f1.Emscripten.clang"
  },
  "schemaVersion": "3.0.2",
  "updatedAt": "2019-07-12T11:50:43.115Z",
  "devdoc": {
    "methods": {}
  },
  "userdoc": {
    "methods": {}
  }
}